:020000022000DC
:1060000000000420C1610300016203000362030079
:10601000056203000762030009620300000000003C
:106020000000000000000000000000003D610300CF
:106030000D620300000000005D61030011620300B7
:10604000B1630300136203001362030079E00200EE
:1060500029E1020013620300C93B0300136203003D
:106060001362030013620300136203001362030050
:106070001362030013620300136203001362030040
:1060800013620300C15E0300136203001362030086
:106090001362030013620300136203001362030020
:1060A0001362030013620300136203001362030010
:1060B00013620300136203000000000000000000F0
:1060C0001362030013620300136203009D6903005F
:1060D000136203001362030013620300056D0200E4
:1060E0001362030013620300136203000000000048
:1060F000000000001362030000000000156A0300A6
:10610000000000000000000000000000000000008F
:10611000000000000000000000000000000000007F
:10612000000000000000000000000000000000006F
:10613000000000000000000000000000000000005F
:10614000000000000000000000000000000000004F
:10615000000000000000000000000000000000003F
:10616000000000000000000000000000000000002F
:10617000000000000000000000000000000000001F
:10618000000000000000000000000000000000000F
:1061900000000000000000000000000000000000FF
:1061A00000000000000000000000000000000000EF
:1061B00000000000000000000000000000000000DF
:1061C00000000000000000000000000000000000CF
:1061D00000000000000000000000000000000000BF
:1061E00000000000000000000000000000000000AF
:1061F000000000000000000000000000000000009F
:10620000F1EE103A43F08073E1EE103A704700BFB0
:1062100010B5054C237833B9044B13B10448AFF3E0
:1062200000800123237010BD2C64002000000000BA
:1062300064FA070008B5034B1BB103490348AFF3E9
:10624000008008BD000000003064002064FA0700F0
:10625000154B002B08BF134B9D46A3F5803A002138
:106260008B460F461348144A121A2BF064FD0F4B4D
:10627000002B00D098470E4B002B00D098470020F1
:10628000002104000D000D48002802D00C48AFF397
:1062900000802BF025FB200029000FF0E3FF2AF0FF
:1062A00077FF00BF0000080000000420000000008D
:1062B000000000002C6400205CCD002000000000E5
:1062C000000000000146014800F0ECBA64640020C0
:1062D00038B5064B1D783DB100242046013400F04E
:1062E00049FEE0B28542F9D838BD00BF60640020A5
:1062F000407DFF2806D010B500F092FD044618B18D
:10630000204610BD0020704710F0A2FC204610BDB2
:10631000407DFF280ED000B583B00DF1070100F0DD
:10632000C9FD20B19DF8070003B05DF804FB4FF0F4
:10633000FF30F9E74FF0FF30704700BF407DFF2886
:1063400011D000B583B001220DF1070100F074FDFA
:1063500020B94FF0FF3003B05DF804FB9DF8070053
:1063600003B05DF804FB4FF0FF307047407DFF281D
:1063700001D000F0FFBD7047407DFF2801D000F044
:106380003FBE0020704700BFF8B50646407DFF289D
:106390001CD017465AB10D46144600F01BFD294685
:1063A000224680B1707D00F08FFD241A01D138465D
:1063B000F8BD054410F04CFC707D00F00BFD294643
:1063C00022460028EED13F1B3846F1E70020F8BDF9
:1063D0000AB32DE9F043524991F81C6191F81D511F
:1063E00091F81E7193B0994614467B1CAA1C8046F6
:1063F000B01C81F81C0181F81D2181F81E3101A813
:10640000422200212BF097FCB9F1410F05D8002062
:1064100013B0BDE8F083422070478DF806608DF818
:106420000E608DF82660721C40F20126D2B2ADF8E3
:106430001060DFF8F0C08DF81E20242640F6083EDC
:106440006B1C8DF827208DF83120ADF804E08DF815
:1064500016608DF820608DF82460CDF818C00426F1
:1064600065F07F0540F209424FF0010E4FF0060C37
:1064700098F81410ADF80C208DF81CE005228DF86A
:106480001F608DF830608DF825C040F207568DF8FA
:106490002A5020464FF0030E63F07F044FF0080CA3
:1064A00002234FF411658DF814108DF807308DF824
:1064B00008308DF809308DF812308DF821308DF8C4
:1064C00022308DF815208DF823208DF82BE08DF8E3
:1064D0002CC04FF00A0EADF82E504FF0400C01A921
:1064E000ADF8286007258DF833308DF840208DF801
:1064F0004140422244F20204ADF838608DF83B304E
:106500008DF83A708DF834E08DF83CC08DF83F502E
:10651000ADF842402BF0EBFB422013B0BDE8F08316
:106520006464002020010524A0F11000FFF750BF93
:1065300070B50368184A5B6882B093428DF8071003
:1065400024D10546407DFF281DD000F043FC0DF10D
:10655000070601243146224688B1687D00F0B4FC6C
:10656000241A02D1012002B070BD064410F070FB65
:10657000687D00F02FFC314622460028EDD1C4F1A1
:10658000010002B070BD002002B070BD01220DF10B
:106590000701984702B070BD89630200437DFF2B5D
:1065A00000D07047094B1A78002AFAD110B500F1D3
:1065B000100442750649204601221A7000F03EFA86
:1065C00021460448BDE8104000F04EB96064002048
:1065D000689705006464002010B50446044800F084
:1065E000F5F8044BFF21002261751A7010BD00BF41
:1065F0006464002060640020407DFF2807D000B55F
:1066000083B000F0E7FB20B103B05DF804FB00208D
:106610007047019010F01CFB019803B05DF804FB7B
:1066200001B900B1704700B583B0694600F0E8FBDE
:10663000009BB3F5966F02D003B05DF804FB00F049
:1066400077FBF9E730B4084B084A4FF47F4102F179
:106650000805002430324FF47A7099821D60C3E936
:1066600001401A6130BC70474864002078970500EB
:106670002DE9F0410024484E2546435D4719A3B15A
:1066800003F14002D2B2012A0AD9F42B08D81A0623
:106690000ED44FF0010EA3F55842B2F5006F56D25A
:1066A00001354719435D002BEAD12046BDE8F08152
:1066B00003F0E002C02A57D003F0F002E02A66D0CF
:1066C00003F0F802F02AEBD103F007024FF0040EBA
:1066D0007B7803F0C00CBCF1800FE1D197F802C0C9
:1066E0000CF0C00803F03F03B8F1800F43EA8213B7
:1066F000D6D10CF03F0CBEF1030F4CEA83132DD022
:10670000FA7802F0C007802FCAD102F03F0242EAB5
:106710008313A3F58032B242C2D8A3F55847B7F528
:10672000006FBDD3B3F5803F05F1040510D31E2CD7
:10673000BBDC6300970A0B44C2F30902A7F520579C
:10674000A2F5105221F814705A80023495E775446E
:10675000202CAAD021F8143001348EE7A3F5006272
:10676000B2F5784F97D39BE77A7802F0C007802F75
:1067700003F01F0394D102F03F0242EA8313A3F116
:106780008002B2F5F06F8BD24FF0020E83E703F078
:106790000F024FF0030E9BE7FFFF0F0090F8503100
:1067A0000B2B0CD871B103F1480210B45C1C80F8BB
:1067B000504140F822105DF8044B18467047002302
:1067C000184670470B461846704700BF2DE9F04148
:1067D000214DDFF89080AC460446BCE80F0088B03D
:1067E00003AF0FC703AE0FCE05F1140E25460FC53C
:1067F0009EE80700DCF800303B806B4636682E8050
:1068000003C36B4603CB4FF4807604F118030125D4
:106810006361A061E16184F8202004F59870C4F8F8
:1068200018812022A4F81C61002184F81E512BF04D
:1068300082FA40F2094309480949C4F8203100228C
:106840000423C4F82401C4F82811C4F82C2184F8C6
:10685000503108B0BDE8F081AC970500DC97050029
:10686000E49705000900000170B504460E68B4F80D
:106870001821B4F81A31656936689B1A08469BB22C
:1068800094F81C112A44B04758B1B4F81821636930
:10689000104480B2A4F81801588094F81C211A7191
:1068A000012070BD2DE9F043284DDFF8B090AC46D3
:1068B00004468846BCE80F0089B003AF0FC703AE9B
:1068C0000FCE05F1140E25460FC59EE80700DCF833
:1068D00000303B806B4636682E8003C36B4603CB8B
:1068E000012504F118034FF480766361A061E16132
:1068F00084F8202004F59870C4F818912022A4F898
:106900001C61002184F81E512BF015FA40F2094752
:10691000042240F2EF230E4E0E48C4F82801002155
:10692000C4F82C1184F85021A3804FF4E131A571F3
:10693000C4F82071C4F824610748FFF72FFE4046D1
:1069400000F0E4F9284609B0BDE8F083AC970500F3
:10695000DC970500E4970500486400200900000169
:106960000048704764640020014B5869704700BFBD
:10697000646400202DE9F04F89B0F8B1032816D0E7
:106980002B4C94F8503183424FD9483004F5AA710A
:1069900054F82000FFF76CFEC0B20130400040F414
:1069A0004070A4F85201234809B0BDE8F08F204C94
:1069B000D4F82C0150B104F5AA71EBE71C4CD4F8C3
:1069C0002031A4F854314FF44170EAE7684600F0F2
:1069D000B1F9054610B300F1FF3A0DF10103164F6E
:1069E000E94653FA8AFAA64604AE97E80F0019F86A
:1069F00001CB86E80F000CF00F080DF1200BD844F6
:106A00000BEB1C1C18F8108C1CF8103CAEF85681CF
:106A1000D145AEF854310EF1040EE6D16800C0B293
:106A20000130400040F44070BBE70020BCE700BFED
:106A300064640020B6650020CC97050010B50446BC
:106A40000248FFF7ABFE207110BD00BF6464002058
:106A5000024B53F8200000B1C0687047F865002071
:106A600030B4094CBDF8085054F8204044B12469B2
:106A700034B10846A44611461A462B4630BC60473E
:106A8000002030BC704700BFF865002030B4084CCF
:106A9000BDF8085054F8204044B1646934B1084648
:106AA000A44611461A462B4630BC604730BC70479E
:106AB000F865002000207047024B186808B190F874
:106AC00060007047006600202DE9F843234C2568DC
:106AD000002D3CD01E462C2303FB00531746D3F851
:106AE000209088460446B9F1000F32D048462CF079
:106AF00083FF2C2303FB0454D4E90954DFF864C05A
:106B0000174B08280246494628BF08224046002D58
:106B100008BF6546002C08BF1C462BF0E8F8284645
:106B20002CF06AFF10280246294628BF102238465A
:106B30002BF0DDF820462CF05FFF042802462146AA
:106B4000304628BF0422BDE8F8432BF0D0B8BDE89A
:106B5000F883DFF814900820CBE700BF0066002020
:106B60001898050008980500FC97050070B5104EB0
:106B70003368D3B12C2404FB0034054662691AB192
:106B80009047336884F832002C2202FB053393F8D7
:106B9000324014B10124204670BD284623463A22D3
:106BA000022101F049F8204670BD1C46204670BD08
:106BB00000660020074B1B6853B110B42C2404FB63
:106BC0000030C46A038E0C6013805DF8044B70477C
:106BD000704700BF0066002008B520220023052171
:106BE00001F02AF84FF0FF3008BD00BF30B4094C67
:106BF00024685CB10D4611462C2202FB0044E46976
:106C000024B11A462846234630BC1847012030BC20
:106C1000704700BF0066002030B4094C029A246817
:106C200054B10D462C2101FB0044A46824B119463F
:106C30002846234630BC18474FF0FF3030BC704721
:106C40000066002030B4094C029A246854B10D4605
:106C50002C2101FB0044E46824B119462846234650
:106C600030BC18474FF0FF3030BC70470066002042
:106C7000044B1B682BB12C2202FB0030036903B1CB
:106C80001847704700660020054B1B682BB12C226B
:106C900002FB0030836903B118470120704700BF31
:106CA0000066002004F02ABE00B5144B402283B0D9
:106CB00083F82723002002F03DFE4FF0804302A816
:106CC0000024D3F8385400F8084D0FF02BFB02A82D
:106CD0000B4B40F8043D0FF051FB0FF061FBEB074D
:106CE00007D400214FF0FF3003F0C8F8FFF7F0FAA7
:106CF000F7E7204604F002FEF3E700BF00E100E002
:106D0000A56C0200002004F055BA00BF00B50023B6
:106D100083B00322CDE9002303490448C8220EF0C2
:106D20008FF803B05DF804FB1C980500A96C020005
:106D300010F03EB94FF08052536E1BBA0360136ED1
:106D40001BBA43600820704700487047249805002C
:106D500070B51E4C2368D3B1012901D0012070BD4C
:106D60001578C5F34115012D13D0022D0FD154789C
:106D7000012C21D0022CF1D19388072B07D1144C80
:106D8000114623892246BDE8704003F053BD002020
:106D900070BD51782229E1D111465288003218BFC6
:106DA00001225A7503F02EFD2268D369002BD5D03D
:106DB000507D9847284670BD9C69002CE7D011464D
:106DC00023782246BDE8704003F034BD04660020FD
:106DD0000460002010B5044602F094FD08B90020BC
:106DE00010BD02F097FD0028F9D1044B4FF4567204
:106DF00002FB0434207900F0010010BD0866002079
:106E0000064A4FF4567303FB0023083318680860E2
:106E10009A889B798B718A80704700BF0866002032
:106E200008B5044A4FF4567303FB0020103002F0FB
:106E3000C9FB08BD086600202DE9F0414FF45675E6
:106E400005FB00F51A4E4FF6FF734FF6FE7005F185
:106E50001004824288BF1A46344492B2204602F09F
:106E6000DBFB0746204602F0C5FB3F2802D8384628
:106E7000BDE8F08106EB0508002098F8031002F049
:106E80005DFF0028F3D0204602F0B4FB3F2805D870
:106E900098F80310002002F061FFE8E705F536726C
:106EA000324498F803104023002002F067FFDEE729
:106EB00008660020034A4FF4567303FB002010308D
:106EC00002F014BC086600202DE9F8434FF4567612
:106ED00006FB00F6254F4FF6FF734FF6FE7006F1E6
:106EE0002404824288BF1A463C4492B2204602F0F3
:106EF00037FC0546204602F065FB3F2802D82846AD
:106F0000BDE8F88302F0FEFC0028F8D002F002FD94
:106F100080460028F3D1204602F054FB0028EED032
:106F200007EB0609404699F8021002F007FF002817
:106F3000E5D006F54676374420463946402202F031
:106F40006BFB034668B13A4699F80210404602F0DE
:106F500015FF0028D3D1064B1B68DB07CFD500BE39
:106F6000CDE799F8021002F0F9FEC8E708660020A4
:106F7000F0ED00E02DE9F041054602F0C3FC10B948
:106F80000020BDE8F08102F0C5FC06460028F7D1DC
:106F90004FF4567404FB05F4174F04F124053D44E7
:106FA000284602F00FFB0028EAD007EB0408304621
:106FB00098F8021002F0C2FE0028E1D004F54674F1
:106FC000274428463946402202F026FB044668B191
:106FD0003A4698F802103046234602F0CFFE48B9F0
:106FE000064B1B68DB07CBD500BECAE798F802103A
:106FF00002F0B4FE2046C4E708660020F0ED00E091
:1070000008B5044A4FF4567303FB0020243002F005
:10701000F1FA08BD08660020F0B51A4C83B00021D3
:107020004FF4567220460E4601252AF084FEFF23B7
:107030004FF4E13204F138016371A2602B46082756
:10704000009604F110004FF48072A77302F07EFAEC
:107050002B464FF4807204F59C7104F124000095D6
:1070600002F074FA04F50E7128460DF059F904F592
:10707000227120622846E6610DF052F9C4E90C063F
:1070800003B0F0BD0866002010B5094B002203F1E3
:10709000240403F110001A601A7102F0EDFB20467F
:1070A00002F0EAFB20460121BDE8104002F004BCDA
:1070B000086600202DE9F0414B79022B82B004D004
:1070C0000025284602B0BDE8F0818B79022BF7D16C
:1070D000304EB3782BB1304B1B68DB07F0D500BEC8
:1070E000EEE78B7833700C780C4407466378242BDA
:1070F0004FF009050BD1082A02D822E0AA4220D37A
:1071000023781C441D446378242BADB2F6D0052BA4
:107110002CD0042B15D163790A2B12D11F4A94F875
:1071200000800192022301320092384604EB0801EC
:107130001A4602F053FD0028CDD00E3518FA85F519
:10714000ADB2174802F056FA3F28BAD9F1780020BC
:1071500002F0F4FD0028B4D0114802F04BFA3F28A9
:10716000F17811D8002002F0F9FDAAE7214638464F
:1071700002F0C0FD0028AED0A378737023781C44C1
:107180001D44ADB26378C4E7064A4023002002F0F4
:10719000F5FD96E708660020F0ED00E00A660020A5
:1071A00018660020E068002038B5137803F060030B
:1071B000202B01D0002038BD264C938825789D4295
:1071C000F8D15378203B032BF4D8DFE803F02920D3
:1071D0000802012931D0032934D0012038BD01290A
:1071E0002BD00329F9D155881B482571E94301F0BB
:1071F000010102F061FB194B002BEED0C5F34002F8
:1072000005F001010020FFF70BFA012038BD01292C
:10721000E3D111460723124A03F00CFB012038BDCD
:107220000129F6D00329D8D10E4B002BD5D00C491B
:107230000020AFF30080012038BD114603F0E2FAD0
:10724000012038BD084B002BC7D051880020AFF378
:107250000080C2E7086600202C660020216602003C
:107260001066002000000000000000002DE9F0473B
:10727000574CE2788A420D4607461E4656D19AB2CE
:1072800004F5367104F1100002F06AFA514BD3B1E3
:107290006379FF2B17D0B6B104F2D72808EB060AA2
:1072A000A8F2C72902E0C2450DD0637918F8012F72
:1072B0009A42F8D1484602F095F90028F3D1617955
:1072C000AFF30080EFE7444B23B1444802F08AF962
:1072D00000285DD0414802F08DF93F285BD8A378A3
:1072E000AB4203D001252846BDE8F0873C4B13B1E3
:1072F0000020AFF3008002F005FB20BB394802F00C
:1073000061F90028EED1002EECD016F03F06E9D14D
:10731000A178384602F012FD05460028E2D0A17897
:1073200038463346324602F029FDDCE7A3788B422B
:10733000DCD02D4B1D6815F00105D4D000BE002512
:107340002846BDE8F08702F0E5FA05460028D5D1C9
:10735000244802F037F90028D0D0A178284602F05E
:10736000EDFC0028CAD021494022A1F53D7002F071
:1073700053F9034638B328461C4AA17802F0FEFCB4
:107380000028AFD1184B1B68DB07B7D500BEB5E7A7
:10739000AFF300809EE7E178002002F0CFFC0028E8
:1073A0009DD00E4802F026F93F2804D8E17800204D
:1073B00002F0D4FC93E740230D4AE178002002F06C
:1073C000DDFCA3788CE7A17802F0C8FC96E700BF4B
:1073D0000866002000000000000000001866002081
:1073E000000000002C660020F0ED00E02069002085
:1073F000E06800204FF48C72002101482AF09BBC09
:10740000606900204FF48C72002101482AF093BC7F
:10741000606900202DE9F04F4B79032B83B004D035
:107420000024204603B0BDE8F08F0B79C3EBC30402
:107430001234A4B2944206D8304E7778002F57D039
:1074400096F88D202AB12E4B1B68DA07E8D500BECE
:10745000E6E74FF08D0B4FF08E0E8C274FF00108B2
:107460000A7801EB020C9CF80150212DEBD14FF072
:107470008C0909FB08698A46C9F888C0895C0546F9
:1074800006EB0E0206EB0B000190009261441A46D7
:107490002846032302F0A2FB0028D4D09AF8063035
:1074A000012B04BF9AF8073089F803308C2303FBC3
:1074B00008F806EB080301221A719AF8022006F870
:1074C0000820D3F888209978B2F80720DA800029BC
:1074D000A7D007F1480232442846402302F04EFC70
:1074E00000289ED1064B1B68DB079AD500BE98E7A3
:1074F000B8464FF0010B4FF0020EB1E76069002073
:10750000F0ED00E02DE9F04F137803F01F06012E97
:1075100083B003D0002003B0BDE8F08FDFF8148201
:10752000978898F80040FFB2BC4200F0B58098F808
:107530008C40BC42EED13746B4464FF0900A4FF033
:1075400094094FF0D40E4FF0910B13F060030C46EA
:107550000546164604D1012900F0A9800120DAE78A
:10756000202BD7D15378013B0A2BD3D801A252F854
:1075700023F000BF4D760200437602002D76020014
:1075800015750200157502001575020015750200CB
:1075900015750200EF750200C5750200A1750200A5
:1075A00001291ED00329D9D171885F4B8C2606FB97
:1075B0000786C9B23171002BD0D06046AFF300808E
:1075C0000120A8E70129C9D17188584A8C2303FBFF
:1075D0000787090A797122B16046AFF3008000285D
:1075E00098D03146284603F00DF9012093E7012990
:1075F00000F085800329B1D1F4887188402C4FEACE
:107600001122204628BF402011F0FF0108EB0E0395
:1076100007D0012C05D91C788C4202D1013880B2E8
:10762000013300906046FFF731FA97E7012995D1C1
:1076300008EB0A0231462846234603F0FBF82046B1
:1076400069E701298AD108EB0B02F3E7012985D10B
:10765000F3887188402B4FEA1122184628BF40203A
:1076600011F0FF01C84455D0012B53D9013880B225
:1076700088F8001008F1010300906046FFF7F0F968
:107680000444A3B2002B48D1294A1268D2077FF5DF
:1076900041AF00BE18463EE70027BC464FF0040A43
:1076A0004FF008094FF0480E4FF0050B4DE75378A7
:1076B000062B7FF42FAF53881B0A212B10D0222BCF
:1076C0007FF428AF6046FFF7C3F98C2303FB0787DD
:1076D000024631462846FB8803F0ACF820461AE7FC
:1076E0008C2303FB0787D7F88820002A3FF412AFCA
:1076F0001378314603B0BDE8F04F03F09BB8F38830
:10770000402B3FF607AF08EB0E02314603F092F82C
:10771000204600E743460024AEE74246314628466D
:1077200003F088F80120F6E60000000000000000E9
:10773000F0ED00E060690020F0B5224CA678657895
:107740008E4283B0074612D0A94235D094F88E00FD
:1077500094F88D50884231D08D4221D01A4B1B684D
:10776000DA0702D4002003B0F0BD00BEFAE7002023
:107770008D4217D000229BB204F1480511460093B8
:107780002B46FFF783F92A46A1783846402302F0BA
:10779000F5FA70B90C4B1B68DB07E3D500BEE2E7D6
:1077A0008C340120094A22B19AB204F10801AFF3E6
:1077B0000080012003B0F0BD0020F3E78C340120ED
:1077C000D6E700BF60690020F0ED00E00000000097
:1077D00030B5154C83B000210D464FF4167220468B
:1077E0002AF0A9FA04F1380104F1100000950123F0
:1077F000802201F0ABFE0123802204F1B801009544
:1078000004F1240001F0A2FE04F59C7101200CF0AB
:1078100087FD04F5C47120620120E5610CF080FD54
:10782000C4E90C0503B030BDE0CA002010B5084C17
:10783000002304F11000C4E90033C4E9023302F06C
:107840001BF804F12400BDE8104002F015B800BF99
:10785000E0CA00202DE9F0474B79012B03D000242A
:107860002046BDE8F0878B79012BF8D1CB79002B2E
:10787000F5D10B78CD1899B26C78242C0BD19142AC
:1078800002D9ECE78A42EAD32B781D440B446C788A
:10789000242C99B2F6D0042CE1D16B79012BDED1E6
:1078A000AB79032BDBD1EB79002BD8D1DFF8B88093
:1078B00098F8013013B998F802702FB1274B1B6864
:1078C000DB07CCD500BECAE7AB7888F800302E784D
:1078D00092462A798B1981469CB22E4432B91FE018
:1078E000337897421C44A4B21E4419D2A24517D340
:1078F0007378052BF4D13146484602F0FBF9002895
:10790000DCD0B378DA0914BF88F8013088F8023087
:1079100033782A7901371C44FFB2A4B21E44DFE752
:107920000F4801F067FE3F289AD998F8021000200E
:1079300002F004FA002893D0094801F05BFE3F28CA
:1079400098F8021003D8002002F008FA88E7054AE8
:107950004023002002F012FA82E700BFF0ED00E0C1
:10796000F0CA0020B8CC0020E0CA002000207047F8
:10797000F8B53D4CA2788A421F4613D19AB204F55D
:10798000EC7104F1100001F0EBFE384B13B1002054
:10799000AFF30080364801F02DFE3F282CD801259A
:1079A0002846F8BD63788B4208D0324B1D6815F02D
:1079B0000105F5D000BE00252846F8BD064604F1B5
:1079C000240001F0FFFD40BB2B4801F0FBFD002827
:1079D000E5D1002FE3D017F03F07E0D161783046C2
:1079E00002F0ACF905460028D9D0617830463B4614
:1079F0003A4602F0C3F9D3E7A178002002F09EF9DD
:107A000005460028CBD01A4801F0F4FD3F28A178A4
:107A100020D8002002F0A2F9C2E76178002002F02D
:107A20008DF90028D0D0402204F5067104F124001D
:107A300001F0F2FD034698B104F50672617800206A
:107A400002F09CF90028AAD10A4B1B68DB07BBD5C2
:107A500000BEB9E7094A4023002002F08FF99FE7F2
:107A6000617802F07BF9AFE7E0CA00200000000077
:107A7000F0CA0020F0ED00E004CB0020B8CC0020DC
:107A800030B4114B9C689A6B93F83C5083F82C10DF
:107A9000A21A022183F830109A6225B942F2050138
:107AA00083F83E50998744B13AB11A7BD20906D186
:107AB00093F82F1030BC02F0A1B930BC704793F896
:107AC0002E1030BC02F09AB9786C002038B5214BEA
:107AD000214C05461BB1607BFFF7D6F8A8B1A06B1F
:107AE000A36894F82F101D4A1B1AB3F5007F28BF16
:107AF0004FF4007328469BB202F040F920B9184BAE
:107B00001B68DB0700D500BE38BDA268A36B84F8F4
:107B10003E0042F20771D31A0120A1870221A3621D
:107B200084F82C0084F83010002AEDD0002BEBD024
:107B3000237BDB0906D194F82F102846BDE8384096
:107B400002F05CB994F82E102846BDE8384002F0E7
:107B500055B900BF896C0200786C0020786A00205B
:107B6000F0ED00E070B5314CE28AA36852BA92B2EF
:107B700086B0054612B1B3FBF2F292B2A66BD4F80E
:107B80001110607B9B1BB3F5007F28BF4FF400737F
:107B900009BA0093B6FBF2F302FB13621944244BBB
:107BA000FFF73AF8031E22DB94F82E200DD0114681
:107BB0009BB228461E4A02F0E1F8B0B91D4B1B6883
:107BC000DB0712D500BE06B070BD0724194603A816
:107BD000CDF80E30ADF812308DF80C508DF8102025
:107BE00005938DF80D4001F02FFF06B070BDA2681F
:107BF000A36B43F602200021D31AA08784F83E101D
:107C000001200221A36284F82C0084F83010002A9D
:107C1000EBD0002BE9D0237BDB0914BF94F82E10A6
:107C200094F82F10284602F0E9F8DEE7786C00207F
:107C3000786A0020F0ED00E010B4054C012084F8D3
:107C40003C1084F83D2084F83E305DF8044B7047CA
:107C5000786C00204022002101482AF06CB800BF57
:107C6000786C00204022002101482AF064B800BF4F
:107C7000786C00204B79082B01D0002070478B795D
:107C8000062BFAD1CB79502BF7D1162A06D81C4BEC
:107C90001B68D907F1D500BE0020704770B5194D9B
:107CA0008B7885F82D300B7882B005F12F0205F125
:107CB0002E0619440223CDE900261A46044601F097
:107CC0008DFF48B90E4B1B68DA0702D500BE02B023
:107CD00070BD002002B070BD20461F2300242A463C
:107CE00095F82F1085F8304002F048F830B9044B71
:107CF0001B68DB0702D500BE1720E8E71720E6E780
:107D0000F0ED00E0786C0020012901D001207047DF
:107D100070B5137803F07F01022984B0054606D0C0
:107D200003F06003202B1AD0002004B070BD5478FB
:107D3000012CF5D15388002BF6D1404E918896F84E
:107D40003030042BC9B272D096F82E208A423DD032
:107D500096F82F408C4250D0012004B070BD53786B
:107D6000FE2B16D0FF2BDFD15388002BDCD1D4881B
:107D7000A3B2002BD8D1314E1146284686F83030B8
:107D8000C6E90D33B48786F83E3002F03BFD012092
:107D9000CBE75388002BC7D1D388012BC4D1284906
:107DA0008DF80F30002946D00192FEF785FE019A2A
:107DB0000028B9D0431EDBB204AC114604F8013DE3
:107DC00028462246012302F035FDC5E7022BC3D128
:107DD000B46BB3681B1B11460324B36206F1200287
:107DE0000D2386F8304001F0C9FF0028B4D1154BAF
:107DF0001B68DB0798D500BE97E7002BACD1214666
:107E000001F0EEFF0028A7D12146284602F0B8FC79
:107E10000028A1D1002386F83030284696F82F108C
:107E2000064A1F2301F0AAFF0028E0D094E701F0E2
:107E3000E5FF204679E70B46BEE700BF786C0020DF
:107E4000B96A0200F0ED00E02DE9F041AB4C94F886
:107E50003050012D8EB01E46074645D02BD3032D42
:107E600005D0022D60D001200EB0BDE8F08194F85D
:107E70002E308B42F7D10D2EF5D1E37B282B00F06D
:107E800035812A2B40F028819D4B13B1607BFEF792
:107E9000EFFE002084F830001F23984A94F82F103A
:107EA000384601F06BFF002878D1964B1B68DA0743
:107EB00077D500BED8E794F82F208A42D3D11F2B64
:107EC00003D1914B216899426DD0042394F82E1070
:107ED00084F83030384601F091FF384694F82F107E
:107EE00001F08CFF0020BFE7E27BA36B282A12D0B1
:107EF0002A2A00F09180217B626B1E44CB09A66385
:107F00007DD096420DD27F4B1B68DB0746D500BE65
:107F100094F83050A5E7626B1E449642A663C0F009
:107F2000CB80022384F8303094F82E10384602F0CB
:107F300027FC002897D1A368A26B94F82E109342D7
:107F400002D9207BC00956D19A1A0325A26238466D
:107F50000D236E4A84F8305001F010FF0028A4D0A1
:107F600081E76B4B002B00F0FF81E17C3046C1F3D1
:107F7000400301F001020909FEF738FE002840F035
:107F8000F38194F83C302BB943F602220023A287F8
:107F900084F83E3001213846FFF772FD94F83050E6
:107FA0005FE7002060E75B4BE07B616823620023B2
:107FB0006162A362012184F82C30A3632828A3689E
:107FC00084F83010636300F0CE802A2860D0002B44
:107FD00000F02281217BC90940F01E81B3F5007FAA
:107FE000D8D811469BB24C4A384601F0C7FE00284B
:107FF0003FF45BAFD2E7384601F000FF33E793B2BE
:10800000607B454A04F10F01FEF7E6FD0028C0F24F
:108010008980A66B626B74E7E28A52BA92B21AB197
:10802000A168B1FBF2F292B2D4F811103A4DB3FB51
:10803000F2FC09BA02FB1C32607B009661442B46BD
:10804000FEF700FE0028C0F2C380864239D9361AF6
:1080500040B1A36B291813FA80F332462846A36374
:1080600029F050FE0023CDF81630194694F82F2041
:10807000ADF81A3005A807238DF8147007968DF80F
:1080800018208DF8153001F0DFFC94F83050E8E648
:10809000E18A49BA89B2002B69D0257BED0940F00D
:1080A0008C80002900F00082B3FBF1F1002900F080
:1080B0002382282838460CD1FFF754FD94F830501D
:1080C000CFE6D4E90D231E449642A663BFF429AF40
:1080D0003846FFF7FBFC61E7104B002B3FF4D9AEAD
:1080E00004F10F01607BAFF30080D2E60C4B002B54
:1080F0003FF4CFAE607BAFF30080CAE6786C00201F
:10810000716C0200F0ED00E055534243986C002082
:10811000ED6B020055534253786A002000000000C6
:1081200000000000A368A66B94F83C1084F82C5063
:108130009A1B0220A26284F8300021B942F20500A5
:1081400084F83E10A087002B3FF464AF002A3FF470
:1081500061AF237BDB0940F0BC8194F82F103846D7
:1081600001F04CFE55E7E18A49BA89B20BBB002900
:108170003FF4D7AE94F83C00A362022184F82C109F
:1081800084F8301000287FF4CFAE42F205000021C1
:10819000A08784F83E10002B3FF4C6AE237BDB099A
:1081A00040F08F811146384601F028FE94F8305097
:1081B00057E6257BED097FF474AF94F83C00A36289
:1081C000022184F82C1084F830100028DDD0E5E777
:1081D000A36BA2681E4443F602200021931BA087D4
:1081E00084F83E1001200221A663A36284F82C00CB
:1081F00084F83010002A3FF497AE002B3FF494AE81
:10820000237BDB0940F05D8194F82F10384601F0A4
:10821000F5FD94F8305024E6667B252800F2328183
:1082200001A353F820F000BF5D83020085840200A3
:10823000858402000B84020085840200858402008C
:108240008584020085840200858402008584020002
:1082500085840200858402008584020085840200F2
:1082600085840200858402008584020085840200E2
:10827000BB8302008584020085840200858402009D
:1082800085840200858402008584020085840200C2
:1082900073830200637F02008584020085840200EC
:1082A00085840200858402008584020085840200A2
:1082B000858402001183020085840200C1820200CD
:1082C000304604AA05A9FEF775FC059B002B00F0BB
:1082D0000881BDF81020002A00F00381013B8B4982
:1082E0001BBA12BAC1E900320820A368002B3FF480
:1082F00051AE984228BF184683B26063834A94F80F
:108300002E10384601F03AFD00283FF4CEAD45E688
:1083100005AD00230DF10E02304604A96B600593F4
:10832000AB60FEF747FC049A002A00F0DA80BDF843
:108330000E30002B00F0D58012BA5BBA0820022163
:10834000ADF81E3006928DF817008DF81C1095E8D8
:1083500007006E4B83E807000C20C6E73046FEF7A7
:1083600005FC00283FF40DAEA368002B3FF4D9AD07
:1083700010E69DF816306649002203F0800362F390
:10838000C7138DF8163003238DF815208DF81720AC
:108390008DF81430002900F0B1803046FEF774FCEF
:1083A0009DF81630594A80F0010060F3C7138DF82C
:1083B0001630059B1360042097E74FF02033022509
:1083C0000022CDE90522304607A909AA08934FF0FB
:1083D000800C079309930D93CDE90A330C931F2664
:1083E0000DAB8DF816508DF8175005AD8DF818604F
:1083F0008DF815C0FEF768FB0FCD444E0FC60FCDAC
:108400000FC62B68336024206FE794F83C2094F863
:108410003D0094F83E10DFF8F4C0DFF8FCE04FF0C8
:1084200000084FF00003CDE90588CDE9078862F325
:1084300003038DF81630F0220A23ADF824808DF85E
:1084400020008DF821108DF814208DF81B3005AD1B
:108450000FCDACE80F002B68ACF80030BEF1000F78
:108460004ED0ACF1100130464FF40072AFF30080F3
:108470000028A4F83C8084F83E8008DB00283FF404
:1084800073AF32E794F83C30002B7FF483ADA38EBA
:108490001E4A2049607BFEF79FFB0028FFF67AAD5D
:1084A00000283FF461AF20E7012194F83C0084F8F4
:1084B0002C100221A36284F8301000287FF46BAEE8
:1084C00063E694F82E10384601F098FC94F830508A
:1084D000C7E494F82E10384601F090FCD4E90D263C
:1084E0000FE594F83C30002B7FF454AD43F60222A4
:1084F00084F83E30A2874DE50221D6E701204FE700
:10850000A4F83CE084F83EE01220EEE6786A002011
:10851000896C0200876C0020000000002DE9F0410A
:10852000054601F0EFF910B90020BDE8F08101F037
:10853000F1F906460028F7D14FF4E67404FB05F480
:10854000174F04F118053D44284601F03BF8002878
:10855000EAD007EB0408304698F8011001F0EEFB72
:108560000028E1D004F5C674274428463946402245
:1085700001F052F8044668B13A4698F801103046C6
:10858000234601F0FBFB48B9064B1B68DB07CBD544
:1085900000BECAE798F8011001F0E0FB2046C4E7EE
:1085A000B86C0020F0ED00E030B5154C83B0002130
:1085B0000D464FF4E672204629F0BDFB04F12C0174
:1085C000201D00950123402200F0C0FF012340221E
:1085D00004F16C01009504F1180000F0B7FF04F1FC
:1085E000AC0101200BF09CFE04F1FC016061012054
:1085F00025610BF095FEC4E9090503B030BD00BF4D
:10860000B86C002010B5064C2046002340F8043B0F
:1086100001F032F904F11800BDE8104001F02CB966
:10862000B86C00204B79FF2B01D0002070472DE95A
:10863000F0412C4E737882B00BB9B3781BB1002097
:1086400002B0BDE8F0810C780F798B7833700D465D
:108650000C44002F39D06378052B0AD0A3189C4214
:1086600002D306E0A34204D921780C44617805299D
:10867000F8D1DFF87880CDF8048008F10103009389
:108680003A460223214601F0A9FA28B9164B1B6885
:10869000DB07D4D500BED3E72B79B178C3EBC30396
:1086A0001C4469B1002001F049FB48B108F1030006
:1086B00000F0A0FF3F280DD8B178002001F04EFB5C
:1086C000737813B10020FFF729FF601B80B202B05E
:1086D000BDE8F08108F24B124023B178002001F090
:1086E0004DFBEDE7B86C0020F0ED00E0B96C002028
:1086F00070B5304CA078884210D062788A420BD195
:108700002D4A1AB199B20020AFF3008001F0FAF8B7
:1087100000BB0125284670BD0025FBE79AB204F591
:10872000A671201D01F01CF8244B13B10020AFF3FB
:108730000080A178002001F001FB05460028E8D068
:108740001F4800F057FF3F28A17829D8002001F0EA
:1087500005FBDFE701F0DEF806460028D9D119480D
:1087600000F030FF0028D4D06178304601F0E6FAFE
:1087700005460028CDD014494022A1F5BA7000F07A
:108780004BFF6178034688B10F4A304601F0F6FA94
:108790000028BED10D4B1B68DB07BAD500BEB9E778
:1087A0000B4A4023002001F0E9FAB3E701F0D6FAC2
:1087B000B0E700BFB86C002000000000000000001F
:1087C000BC6C0020D06C0020446E0020F0ED00E076
:1087D000046E0020F8B50E688D88B7783544AE4237
:1087E0000BD23B469F42344603D10BE06378042B07
:1087F00005D023781C44A542F8D80020F8BDA37802
:108800009F42F6D1E3789A42F3D1A542F5D9237D70
:10881000012B06D9144B1B68DA07EED500BE0020E9
:10882000ECE723790D46DBB1012BE6D12278E38911
:10883000617A1344114423442144994204D3DCE770
:108840000A7811448B42D8D94A78052AF8D101F028
:1088500051FA28B9044B1B68DB07CED500BEF8BD22
:10886000A41BEC800120F8BDF0ED00E0C28832B915
:10887000634B1B68DB0700D500BE00207047F0B4D7
:108880000378604803EB830403EB4403C058831868
:1088900003D08E781C7BA64207D9594B1B68D90799
:1088A00000D500BE0020F0BC70472EB9012C01D9C4
:1088B0000120F8E701268E7001248C60C1F80E407B
:1088C0004C7700256FF03F0481F822508C766FF0D2
:1088D00003056FF06404CD760C774B4DC1F81E5044
:1088E000082481F82340825CB3F80D4014441C44F2
:1088F0001344A342D1D2454F9D78112D0CD827FAAD
:1089000005F0C04310F0010006D1DA78964203D199
:1089100007E05A78242AEFD01A7813449C42F8D8FA
:10892000BBE79C42B9D0042D5AD0062DBBD1CF78DD
:108930001A79974218D81FB9012AB9D80127CF70E0
:108940001A781A44A2420FD2967806F0FD0CBCF1B8
:10895000050F0FD0112E03D10CE05678242EF3D042
:10896000167832449442F8D8254B1B68DA0799D51B
:1089700000BE98E7D678B742F2D19442F4D0D1F84D
:1089800012406CB9042D2FD0062D07D1B2F8053056
:10899000B2F8074004FB03F42401E408C1F81240D4
:1089A0004B685BB9557E012D82D8D2F81A3025B9B3
:1089B000D2F81E209A427FF47BAF4B60144AA2FB90
:1089C00003235A0BD0D0631E1344B3FBF2F30233DC
:1089D000B3F5807F28BF4FF48073C1F8163067E786
:1089E000012248730A73A2E7B2F80560B2F8075093
:1089F0005C7D05FB06F304FB03F4E408CEE700BF4F
:108A0000F0ED00E0846E002003010101501002002F
:108A10005917B7D12DE9F84F0B78574C03EB830565
:108A2000894603EB45030989E6581746804681B11C
:108A300031440024897801F0B1FEB9F80A30A9F870
:108A4000084033B133444046997801F0A7FEA9F8B5
:108A50000A400023B9F80240B9F80450C9F81430AC
:108A6000C9E9033334443544A278AC4238BF1346D5
:108A700009D29A4203D10CE06378042B06D0237804
:108A80001C44A542F8D80020BDE8F88FA3789A428C
:108A9000F5D1E3789F42F2D1A542F4D994F804A02D
:108AA000BAF1020F36D8A31BA9F80630002F37D031
:108AB00023781C44BAF1000F27D04FF0000BAC42D2
:108AC00006D327E0042B25D023781C44A54221D9C6
:108AD0006378052BF6D1E37803F00303002F3AD037
:108AE000012B3BD02146404601F004F900283DD03F
:108AF00009EB4B03A21B1A8122780BF101039A4563
:108B000014444FF0010BDAD817B1022389F81D3055
:108B10000120B9E7194B1B68DA07B4D500BEB2E7EC
:108B200099F81D30012B10D009F11E03394689F840
:108B30001D70C9F818701846302229F0FCF801465B
:108B40004846FFF793FE00289DD023781C44BAF1D5
:108B5000000FB2D1DCE7022BC4D094E7A388D9F888
:108B60001820C3F30A039342BCD28CE7034B1B6863
:108B7000DB0788D500BE87E7846E0020F0ED00E0BB
:108B800010B4064C06480023C4E900331946C4F863
:108B9000073050225DF8044B29F0CDB8846E0020D8
:108BA000906E002010B4064C06480023C4E9003340
:108BB0001946C4F8073050225DF8044B29F0BBB8C1
:108BC000846E0020906E00202DE9F0414B790E2B31
:108BD00004D04FF000084046BDE8F0818B79012BAE
:108BE000F7D1CB79012BF4D13E4E33682BB13E4BFC
:108BF0001B68DB07EDD500BEEBE714460F461A46AF
:108C0000314605463760B480FFF7E4FD0028E0D028
:108C1000F2883368B97813443C44A74293F814C0EF
:108C20003B4605D308E05A78042A4DD00B2A4BD096
:108C30001A7813449C42F6D8BCF1000F4ED02B4951
:108C40004A88002AD3D1D81B1FFA80F83272A1F8C3
:108C500002809C4293F802E00A8098BF034605D840
:108C60000BE05A78042A2BD00B2A29D01A78134407
:108C70009C42F6D8DB1B1FFA83F80022BCF1010FDF
:108C8000A1F804804A77B2D117FA80F017FA83F37B
:108C9000984281780AD282788A4203D118E04278D9
:108CA000042AF8D0027810448342F8D828460022DB
:108CB0000E49FFF7AFFE00288BD0A6F804808AE7A4
:108CC0009A787245D2D0D5E79A788A42B0D0B3E785
:108CD000C278012AE6D18342EFD1E7E7DB1B1FFA16
:108CE00083F8EAE7846E0020F0ED00E0906E00204B
:108CF0002DE9F047167806F01F04012C8CB004D043
:108D0000002420460CB0BDE8F087DFF8F892B2F8F6
:108D100004C0D9F80070804615465FFA8CF317B18D
:108D2000BA789A422CD0B44F7C88002CE9D03A789B
:108D300002EB820002EB400259F802E07444A27890
:108D40009A42DDD1C6F34116F3B2002B00F09C80AD
:108D5000012B12D15FEA1C2C0FD16B881B0A022B4E
:108D600000F02E81062B00F01781012B00F0F5801A
:108D7000A24B1B68DB0700D500BE07233B77BFE78C
:108D8000C6F34116F4B2002C47D0012C25D15FEA7E
:108D90001C2C26D0B9F80620BB18B95CDA8911441E
:108DA00019448B420ED29A78023A052A06D8DA780C
:108DB000624503D107E05A78242AF4D01A78134484
:108DC0009942F8D849B1002389F80930012498E77D
:108DD0008A4B1B68D90700D500BE072389F80930E4
:108DE0008EE76B881B0A012B00F09580022BEFD1D8
:108DF0006B78812B00F04781862BE9D10129E2D1E4
:108E00000B46404629467E4A01F014FD0028DAD17F
:108E1000FF2389F80930002473E76B780A2B4AD0C6
:108E20000B2B3ED10129CED1EB88002BF0D1B9F824
:108E30000630FA181179A9B1F85CD189537A014446
:108E4000034413440A44934205D395E119780B4433
:108E50009A4240F2918159780529F7D19978404694
:108E600001F09CFC0026A9F806606A886549404626
:108E7000FFF7B0FC04460028CAD02946404601F05E
:108E8000C1FC89F809603CE76B780A2B27D00B2BD3
:108E90007FF46EAF012900F0BD8000233B770124F1
:108EA0002FE7564B1B6813F001032FD107221C46F6
:108EB00089F8092025E7012985D1EB88012BA7D165
:108EC000B9F80620BF18A3D00CAAF97802F8301D13
:108ED000294601F0AFFC04460028D2D198E70129C9
:108EE000DBD1EB88012B35D1FB889BB31EEB030351
:108EF00030D00CAADB7802F8303D40460B462946BC
:108F000001F098FC044628B33E77FAE600BE07233A
:108F100089F80930F5E66B78812B00F0D180862B3B
:108F200000F0BE80012B7FF453AF012900F0CB800D
:108F300002297FF448AF344B002B3FF444AF99F83B
:108F40000A100020AFF30080B0FA80F489F809001D
:108F50006409D6E6FF233B77D2E67B7F0BB187F827
:108F60001DC06C78842C61D8822C65D2012C00F055
:108F70000A81812C7FF4FCAE01298ED1EB883BB1B4
:108F8000294640463023214A01F054FC002884D170
:108F9000FF233B770024B4E66B78812B00F0A1809F
:108FA000862B7FF4E5AE01297FF477AF2946404652
:108FB0000123134A01F03EFC00287FF46EAFE7E77F
:108FC0006B78812BD8D040F2B080852B00F0978051
:108FD000862B7FF4CDAE01297FF45FAFEB88012BA8
:108FE000D6D10B4640462946094A01F023FC002809
:108FF0007FF453AFCCE700BF906E0020F0ED00E0AF
:109000005D980500846E002000000000AE6E002018
:109010005E9805006A8839464046FFF7FBFC002849
:1090200098D02946404601F0EDFB36E7862CD2D099
:1090300065D3872C7FF49CAE01297FF42EAFEB889B
:10904000002BA5D0B44EE94606F1300A30687168AD
:10905000B268F368CC46ACE80F0010365645E146DE
:10906000F4D19DF80210002940F09F80832C00F07D
:109070007D81872C00F05E81822C00F05B810823CB
:109080003B7700243DE601297FF49DAE294640460A
:109090000123A24A01F0CEFB00287FF494AEB7E68C
:1090A00001297FF490AEEB88012B7FF4B1AE294605
:1090B00040469B4A01F0BEFB00287FF484AEA7E641
:1090C00001297FF480AEEB88012B7FF4A1AE294605
:1090D00040460123934A01F0ADFB00287FF473AEB4
:1090E00096E601297FF4D9AE0B464046294607F1A2
:1090F0001C0201F09FFB00287FF4CFAE48E7012956
:109100007FF4CBAEEB88022B7FF442AF0CAA302168
:1091100022F8301D4046294601F08CFB0446002809
:109120003FF436AF00233B77EBE5012B7FF420AE15
:1091300001293FF425AF02297FF4AFAE7649A1F1B2
:109140001E00FFF793FB044660B3774B7A6BBA615E
:109150003BB1714A79783878AFF3008000287FF40A
:109160009CAE002302214FF48072C7E903337B6178
:10917000A7F85010BA83C4E56C4B1B68D8077FF57D
:1091800047AE00BE44E601293FF4FAAE02297FF45F
:1091900084AE6149A1F11E00FFF768FB0446002878
:1091A0007FF47BAE08233B77ABE59DF803000028F6
:1091B0007BD1FA88002A3AD01EEB020337D01EF882
:1091C0000220B3F80D005A4E10441844134498423C
:1091D0000FD99A78112A04D826FA02F2D20700F1A0
:1091E000CF801A7813449842F1D95A78242AF8D1BA
:1091F000EDE70346832C54D0872C4AD0822C7FF491
:109200003EAF01218DF803101A781A44904233D9E9
:10921000947804F0FD06052E10D0112C0ED0147891
:1092200022449042F2D95478242CF8D1EEE73F4BF7
:109230001B68D9077FF523AF00BE20E7D478A14291
:10924000EDD19978042919D006297FF418AFB2F826
:109250000510B2F8073003FB01F31B01DB08CDF862
:1092600012306A4629464046302301F0E3FA0446AC
:1092700000283FF48DAE55E70246E2E7B2F805104C
:10928000B2F807205B7D02FB01F203FB02F3DB086F
:10929000E5E79A78042A06D0062A7FF4F0AE997999
:1092A000B0E71979AEE7997DACE7019B002BD8D1E7
:1092B000FA88002ABBD01EEB0203B8D01EF802E0E9
:1092C000B3F80D20DFF868C072449E1873449E42C4
:1092D0000ED99A78112A03D82CFA02F2D20754D464
:1092E0001A7813449E42F2D95A78242AF8D1EEE72C
:1092F00033461A7813449E4262D99A7802F0FD01EF
:10930000052946D0112A44D01A7813449E42F2D936
:109310005A78242AF8D1EEE7AE6E00208D6E002038
:109320005E9805008E6E002000000000F0ED00E069
:109330005010020001238DF8023001234FF001127A
:10934000029300230392ADF810304FF6C0428DF81F
:10935000223040F29B13ADF81A20ADF81C30404A81
:10936000CDF81E2008238DF823307AE7FB88002BE8
:10937000E3D01EEB0303E0D01B7B8DF80230DCE76B
:10938000DA7891427FF42DAF34E7DA789142A7D1B1
:10939000AFE7DA789042B7D1823C052C3FF66FAE4A
:1093A00001A252F824F000BF299402000D9402009B
:1093B000EF9302007F9002007F900200C5930200AD
:1093C0003346E9E7D3F8151042F21073B1FBF3F31B
:1093D000019100293ED0DDF812208BB9931CB3F522
:1093E000807F28BF4FF48073CDF8163039E75A7E5E
:1093F00072BBD3F8221042F21073B1FBF3F3E7E72C
:10940000013A1A44B2FBF3F30233E8E75A7ECAB1D9
:10941000053203EB8202D2F80210D3F81A3042F27E
:109420001072B3FBF2F3D3E75A7E72B1053203EB4D
:109430008202D2F80220D3F81A1042F21073B2FB63
:10944000F3F3C5E7D3F81E10E7E7D3F81E20F2E7E1
:10945000002301930023ADF81630ADF8183000E773
:10946000030101012DE9F843334C238953B12278DC
:10947000324F02EB820502EB45057D592B449F7864
:109480008F420AD02E4B1B68DB0703D500BE00209D
:10949000BDE8F8830020BDE8F883D4E904369E4295
:1094A00005460BD327490023C4E90333636119B18F
:1094B00061781046AFF300800120E9E700F03EFC40
:1094C0000028E7D0D4E9040194F85030A269A0EB59
:1094D000010808EB0306964228BF1646B34213D98B
:1094E000174B1B6813F0010301D000BE002339465F
:1094F0002846154A00F042FC0028DDD1104B1B68BD
:10950000DA07C7D500BEC3E7E268A6EB030950330C
:109510001144E0184A4628F0EAFB6369C84503EBAA
:1095200009026261B3B2E2D194F8512042F0020222
:1095300084F85120DBE700BF906E0020846E00208D
:10954000F0ED00E000000000E06E00202DE9F041A9
:10955000B2F5004F9DF8188030D80446C0681E460A
:109560000F46154618B14FF0FF310BF01BF920697B
:1095700018B14FF0FF310BF015F9E288E068276071
:1095800066F30E02C2F30721002368F3C711E280DD
:109590006381A580E171238118B11A4619460AF04A
:1095A000E5FC206938B100231A4619460AF0DEFCB2
:1095B0000120BDE8F0810120BDE8F0810020BDE878
:1095C000F08100BF03894289808892B29BB29342A6
:1095D00036BFC2EB40029B1A9B189BB2984228BF31
:1095E00018467047028943899BB2981AB0FA80F0F6
:1095F0004009704703894289808892B29BB29342A6
:1096000036BFC2EB40029B1A9B189BB2984286BFA2
:10961000C01A80B2002070472DE9F8430546006962
:109620000E46174618B14FF0FF310BF0BBF82B89EF
:109630006989A8889BB289B28B4236BFC1EB4004CE
:109640005C1AE418A4B2002C4AD0A04206D283428D
:109650002CBF191A191889B269810446BC4228BF67
:109660003C468842A4B203D8091A89B28842FBD981
:10967000EA882B68401AC2F30E0887B21FFA88F2F4
:10968000BC4202FB013125D917FB08F91FFA89F901
:109690004A46304628F02BFBE21B12FB08F206EB91
:1096A000090092B2296828F022FB6A89A88892B240
:1096B00011198BB29A4215D940001B1A9BB2286926
:1096C0006B8120B100231A4619460AF04FFC204650
:1096D000BDE8F88302FB04F2304628F008FBE4E71B
:1096E00069898BB240008342E9DBE6E738B505467D
:1096F00000690C4618B14FF0FF310BF053F829897F
:109700006B89AA8889B29BB2994236BFC3EB4200EB
:10971000C81A401880B200B3824209D291422CBFCD
:109720008B1A8B189BB29A426B8103D89B1A9BB2FF
:109730009A42FBD9EA882968C2F30E02204602FB4E
:10974000031128F0D4FA0124286920B100231A4615
:1097500019460AF00BFC204638BD0446F4E700BF6A
:109760002DE9F047144612B92046BDE8F0870546BA
:10977000C0680F4618B14FF0FF310BF013F8E979CC
:109780002E896A89AB88C909B6B292B231D19642A4
:1097900036BFC2EB4302B21A921992B29A4231D248
:1097A0009A1A92B29442E98828BF1446C1F30E086F
:1097B0009E42304603D3C01A80B29842FBD21B1A95
:1097C0002A681FFA83F9A14508FB002026D308FB6D
:1097D00004F2394628F08BFAA3199BB2AA88B34247
:1097E0004FEA420201D3934201DB9B1A9BB22B81C9
:1097F00009E0E9889C42C1F30E0822D3E41A08FB71
:109800000477ABBB0024E8680028ADD000231A46DB
:1098100019460AF0ABFB2046BDE8F08719FB08FAB1
:109820001FFA8AFA5246394628F061FAA4EB090277
:1098300012FB08F207EB0A0192B2286828F057FAE7
:10984000CAE7964210D25800811A314489B22144A5
:109850008142ADDBD618361BB6B2B24201D8B04257
:10986000A6DC361AB6B2A3E7B11A89B25800EEE701
:1098700016461C469AE700BF10B50446C06818B1EA
:109880004FF0FF310AF08EFF206918B14FF0FF3121
:109890000AF088FFE06800236381238118B11A462B
:1098A00019460AF063FB206920B100231A461946C5
:1098B0000AF05CFB012010BD38B50446C0680D46B7
:1098C00018B14FF0FF310AF06DFF206918B14FF069
:1098D000FF310AF067FFE379E06865F3C713E371CE
:1098E00020B100231A4619460AF040FB206920B136
:1098F00000231A4619460AF039FB012038BD00BF83
:10990000704700BF024B5878003018BF01207047E5
:1099100038700020024B1878C0F38000704700BFF9
:1099200038700020024B1878FF3818BF01207047AC
:10993000146100202DE9F043384C2378FF2B83B0CD
:1099400003D0012003B0BDE8F08338220021054692
:10995000334828F0F0F9334901200AF0E1FC324B9A
:10996000186000283AD0314F3B46002633F80C0BE4
:109970007A68798800960AF087FAB96806460BF08B
:10998000EBF82B4B1E60002E40D02A4B23B12A4807
:10999000AFF30080294B1860274EDFF8A88032789B
:1099A000264F4FF000094B460EE0386810EBC1031C
:1099B00025D01B689847327809F101095FFA89F9C7
:1099C000511D49454B4611DB9B1A4A4509EB49019C
:1099D00003EB4303E9D808EBC303EAE7184B1B6822
:1099E000DC0701D500BEADE70020ABE728462570B7
:1099F00001F04EF9284601F04DF90120A2E7104A86
:109A00001268D207F0D500BE18469BE70C4B1B68C6
:109A1000D907E9D500BE304694E700BF14610020A5
:109A200038700020E86F002070700020B8600020BF
:109A30007470002000000000E46F0020E06F002040
:109A4000F0ED00E0609805002DE9F0414378023B1D
:109A500084B005460C46042B0CD8DFE803F03A4EE0
:109A600003A23000574B1A78D00711D51A7842F06C
:109A700004021A70544B18686CB923464FF0FF3239
:109A800029460AF073FA224669782878FFF738FFEA
:109A900004B0BDE8F08104AA002342F80C3D294639
:109AA0000AF074FC019B002BEDD0484B4FF0805224
:109AB0005A6040BFBFF34F8FBFF36F8FE3E7414A58
:109AC000D3780133DBB2D3703F4B1868002CE2D15E
:109AD000D3E73C4B1A786FF300021A701A78002112
:109AE0006FF341021A7059701A7861F382021A708A
:109AF000354B1868002CCED1BFE7324B1A7852078D
:109B00002CD51A7830496FF382021A7003788DF8D9
:109B1000043005220023CDF80A30CDF80630ADF828
:109B20000E3008688DF80520002C44D004AA01A945
:109B300042F8103D0AF02AFC009B43B1234B4FF042
:109B400080525A6040BFBFF34F8FBFF36F8F2246E2
:109B50009DF805109DF80400FFF7D2FE1C4EDFF8BB
:109B6000788031781B4F0024224609E03B6813EBD4
:109B7000C0030ED10134E4B24B1DA342224687DB61
:109B8000A14204EB4400F1D8521A02EB420208EB66
:109B9000C2035B69002BEDD069682878984731785B
:109BA000E8E7084B1A78D1077FF572AF1A786FF3A0
:109BB00082021A705EE723464FF0FF3201A90AF0D5
:109BC000D5F9C4E7387000207470002000ED00E083
:109BD000E46F0020E06F0020609805002DE9F84F49
:109BE0000A9F002A4BD00C46497805290ED1E67809
:109BF00006F00306B34209D1A37803F07F03082BD4
:109C00000DD9204B1B68DA0700D500BE1D4B1B6821
:109C1000DB0702D40020BDE8F88F00BEFAE7DFF8CA
:109C200068A0DFF868909AF800B0904600250EE032
:109C30006378052BEAD1E37803F00303B342E5D15F
:109C4000A37803F07F03082BDBD89AF800B099F8CB
:109C50000210204602F072F80028D2D05846214661
:109C600001F030F80028D1D0A378DA0916BF0B9A9A
:109C70003B7013702378013545451C44D8D1012031
:109C8000BDE8F88FF0ED00E014610020387000208E
:109C900030B5164D85B0082400230290019303913E
:109CA0008DF8054028681446CAB104AA01A942F8F3
:109CB000103D0AF06BFB009B43B10D4B4FF08052FF
:109CC0005A6040BFBFF34F8FBFF36F8F22469DF89E
:109CD00005109DF80400FFF713FE05B030BD1346D4
:109CE00001A94FF0FF320AF041F9EFE7747000204C
:109CF00000ED00E038B58B7803F07F03082B06D920
:109D00000B4B1B68DB0700D500BE002038BD094A9D
:109D1000094B0C46204691781D7802F00FF8002878
:109D2000EED021462846BDE8384000F0CBBF00BF4A
:109D3000F0ED00E03870002014610020CB092633DC
:109D400001F07F010348044A03EB41010844116814
:109D500001F0AABF3870002070700020CB092633B4
:109D600001F07F010348044A03EB410108441168F4
:109D700001F0C6BF387000207070002038B5154C57
:109D800001F07F0504EB450404EBD1142034A079E5
:109D9000C00706D5104B1B68DA0700D500BE0020AF
:109DA00038BDA5790D4845F001050078A57101F091
:109DB000C5F80028F4D1A379074A60F30003A37122
:109DC000A37960F38203A3711368DB07E7D500BEB4
:109DD00038BD00BF38700020F0ED00E014610020B5
:109DE000054B01F07F0203EB420303EBD11191F825
:109DF000260000F0010070473870002010B50D4CAF
:109E000001F07F0204EB420404EBD11494F82630F5
:109E10009B0700D510BD084B2034187801F088F955
:109E2000A37943F00203A371A37943F00103A37163
:109E300010BD00BF387000201461002010B50D4C1B
:109E400001F07F0204EB420404EBD11494F82630B5
:109E50009B0700D410BD084B2034187801F090F90E
:109E6000A3796FF34103A371A3796FF30003A37187
:109E700010BD00BF3870002014610020C04B1B785B
:109E8000FF2B00F0AF812DE9F04F04468DB04FF469
:109E90007A7200238002A10D26F07CFFB94DDFF815
:109EA00008B3B94F8246631C286800F02F81002C4C
:109EB00000F02C81BAF1000F14BF5246012209A90B
:109EC0000AF0DEFAC0B19DF82530013B072B00F205
:109ED0001681DFE813F0F000CB001401BC00B000E5
:109EE0004300140008000A9B0BB10B9898472868A0
:109EF0000AF004FE0028D6D10DB0BDE8F08F9DF821
:109F00002810A24B01F07F0603EB460303EBD113AD
:109F100093F826006FF3000083F8260093F82600DC
:109F20006FF3820083F82600002E00F05381984AD8
:109F30001B7D12789342C0F03F81501D9842C0F2C1
:109F400042819B1A03EB43030BEBC3031E699DF88D
:109F500029200B9B9DF82400B047C8E78B4EF3786F
:109F6000013BDBB2F370F37803F0FF00002BBED1AE
:109F700033789DF8249043F00103337096F826302F
:109F800060F3000386F8263096F8263060F38203EB
:109F900086F8263096F8273060F3000386F82730DD
:109FA00096F8273060F3820386F8273000F0ACFC87
:109FB0009DF8283003F06002602A00F02F81402ACB
:109FC00000F0118103F01F03012B00F0DC81C0F0D1
:109FD0003581022B40F022819DF82C1001F07F0387
:109FE000082B00F21B815B00F0184FEAD11C604483
:109FF000DFF89CE190F814809EF80000804580F026
:10A000005382386808EB480800EBC808002A00F0C3
:10A010001C82B8F1000F00F00681D8F80C0000F0A7
:10A0200073FCD8F80C3048460AAA0121984700284A
:10A030007FF45DAFF7E0554B1B78D9077FF557AF3D
:10A04000544B002B3FF453AFAFF300804FE74F4B1F
:10A050001A78D0077FF54BAF4F4A002A3FF447AF3D
:10A060001878C0F3C000AFF3008040E7DFF820812C
:10A070009DF8246098F800100023994611E03B6891
:10A0800013EBC20300F092805B683046984798F863
:10A09000001009F101095FFA89F94A1D91454B4603
:10A0A0004EDC5B1A894509EB490203EB4303E6D317
:10A0B0000BEBC303E8E7DFF8D8809DF8246098F83D
:10A0C00000100023994610E03B6813EBC20351D007
:10A0D0005B683046984798F8001009F101095FFA6B
:10A0E00089F94A1D91454B4612DC5B1A894509EBFB
:10A0F000490203EB4303E7D30BEBC303E8E7274B2A
:10A100001B68DA077FF5F3AE00BEF0E62246D6E61E
:10A11000382200211D4827F00EFE214A4FF0FF3360
:10A12000C2E90533C2E90033C2E90233D3611384C3
:10A13000136100F0DFFB154B9DF828209A70D6E6DE
:10A1400038220021114827F0F6FD154A4FF0FF3361
:10A15000C2E90533C2E90033C2E90233D361138493
:10A16000136100F0C7FB0F4B002B3FF4C0AEAFF301
:10A170000080BCE6094B1B68DE07DAD500BED8E7D5
:10A180001461002074700020E06F002038700020FF
:10A19000E46F00200000000000000000F0ED00E08F
:10A1A0003C7000200000000060980500BA4B1B685E
:10A1B000D807D6D500BED4E73A6803EB430312EBC9
:10A1C000C3037FF4C3AEB44B1B68DC077FF594AECA
:10A1D00000BE91E60B9B9DF829209DF8240000F01D
:10A1E000A9FB84E67047AD48E8B100F08DFB484616
:10A1F0000AAA0121FCF7ACFD00287FF478AE12E03A
:10A20000581EC0B2FCF7B0FB18B14378022B00F027
:10A21000B281A14B1B68DB0700D500BE9E4B1B68BB
:10A22000DE0700D500BE9DF82400002100F080FF6D
:10A2300080219DF8240000F07BFF58E6202A00F0E2
:10A24000D780002AEAD19DF82930092BE6D801A24F
:10A2500052F823F04BA302002FA302001DA202001C
:10A260006BA302001DA2020015A30200C5A20200FA
:10A270001DA20200B1A202007DA202009DF82A30B8
:10A2800003931A4673789A420AD07378002B40F0F1
:10A290004A81039B002BB3D1814B0BB1AFF30080FC
:10A2A0009DF80C30737048460AA900F0ABFA1EE620
:10A2B0000CAA737802F80E3D484601230AA900F063
:10A2C000B9FA14E6BDF82A00030A5A1EC0B20E2AD3
:10A2D000A9D801A151F822F033A7020019A7020062
:10A2E00009A7020027A2020027A20200E3A602009B
:10A2F00019A7020027A2020027A2020027A202003B
:10A3000027A2020027A2020027A2020027A2020021
:10A31000EFA402000AA800F0FDFA48469DF82A10B2
:10A3200000F0BEFC337843F002033370DFE5BDF884
:10A330002A30012B7FF477AF337848466FF3C3039D
:10A340000AA9337000F05EFAD1E53378990801F07C
:10A350000201C3F340130CAA0B4322F80E3D4846FA
:10A3600002230AA900F066FAC1E5BDF82A30012BE4
:10A370007FF459AF3378484643F008030AA9337095
:10A3800000F040FAB3E59DF82C300F2B3FF64BAFB1
:10A390003344444A1B791278934247D23E6803EB18
:10A3A000430316EBC3063FF43EAFF06800F0ACFA8F
:10A3B000F3680AAA01214846984700287FF497AD20
:10A3C0009DF8283013F060067FF42DAF9DF82930FA
:10A3D0000A3B012B3FF627AF00F096FA9DF8293093
:10A3E0000A2B00F097800AA9484600F00BFA7EE598
:10A3F0009DF82C300F2B3FF616AF3344294A1B79BA
:10A40000127893425ED23E6803EB430316EBC30619
:10A410003FF409AFF06800F077FAF36848460AAAFB
:10A420000121984700287FF462ADFCE6511D994256
:10A43000FFF6F9AE9B1A03EB43030BEBC306B4E73D
:10A44000002A7FF4F0AE4FF000089DF82920012A81
:10A4500003D041D3032A7FF4E1AEBDF82A3023B9FB
:10A46000012A484640D0FFF7C9FCB8F1000F3FF47D
:10A470003EADD8F80C0000F047FAD8F80C300AAA24
:10A48000012148469847002000F03EFA96F8273010
:10A49000DB073FF52CADA6E7F0ED00E0516D0200C3
:10A4A00000000000E46F002000F1050EC645C7DB88
:10A4B000A8EB000808EB48080BEBC808002A7FF45B
:10A4C000ACADC2E7511D9942FFF6ADAE9B1A03EB4E
:10A4D00043030BEBC3069DE73344634420330CAACC
:10A4E0009B79C3F3400338E7FFF7A8FCBDE7994B1E
:10A4F000002B3FF498AEFCF727FC024600283FF4FF
:10A500008DAE484653880AA900F094F900287FF4DC
:10A51000EEAC88E60CAA0AA902F80E6D48460123A3
:10A5200000F088F9E3E4484600F05AFCDFF828829E
:10A53000B37802930023019498F800001C4610E0C1
:10A540003B6813EBC10300F0C5805B684846984741
:10A5500098F800000134E4B2411D8C42234600F318
:10A56000A3801B1A844204EB440103EB4303E7D3AB
:10A570000BEBC303E9E7C2793378511161F304139C
:10A58000921162F3451333704388CDF81890CDE9EA
:10A5900001A4C318059300F10908059B434557D949
:10A5A00098F801300B2B03BF98F8003098F803A0FF
:10A5B00098444FF0010A98F80130042B2FD1059BE5
:10A5C000654ACDF81CA0A3EB080300219BB20491BF
:10A5D000127889469A4617E03C6814EBC1041ED0F5
:10A5E000524641460698A3689847082809F1010297
:10A5F00001D9824537D2584B5FFA82F91A78CDF8E3
:10A600001090511D894520DC049B914509EB4901BF
:10A61000A3EB0202E0D3182303FB02B4E0E74F4BA5
:10A620001B68DA07DDE901A47FF5F8ADF5E5024620
:10A630004B46044641464A4801F0B2FB464B049A59
:10A640001B7805339342A044A7DADDE901A4E0E5D5
:10A65000444BDDF81890DDE901A4002B3FF420AE57
:10A66000AFF300801CE6DDF81CA0BAF1010F0AD19F
:10A67000A3683D493D4A8B4208BF4FF0020A93420E
:10A6800008BF4FF0020A0021CBB2534501F101018E
:10A69000CDD298F80220134456FA83F31A79FF2A90
:10A6A000BDD183F80490EFE7382200213048019CA7
:10A6B00027F041FB2F4A4FF0FF33C2E90533C2E9CF
:10A6C0000033C2E90233D361138413619DF808306B
:10A6D000B370DEE5214B019C1B68D907F6D500BE9F
:10A6E000F4E7254B002B3FF49EADAFF3008002460C
:10A6F00000283FF498AD484613780AA900F09AF86C
:10A7000000287FF4F4AB8EE5BDF82C10FCF732F98D
:10A7100002460028EFD186E5022B16D0174B002BFE
:10A720003FF481ADAFF300800246002A3FF476ADDE
:10A73000E7E6FCF715F9122302460AA9484600F09D
:10A7400079F800287FF4D3AB6DE5FCF70DF90246EC
:10A75000EBE700BF496D0200E46F0020F0ED00E080
:10A760004C70002000000000B57002005578020017
:10A77000387000203C700020000000000000000045
:10A78000054B01F07F0203EB420303EBD11191F87B
:10A790002600C0F34000704738700020144BFBB116
:10A7A00010B5144B18780C4600F064FB124904F005
:10A7B0007F0301EB430101EBD41191F826306FF3D5
:10A7C000410381F8263091F826306FF3000381F8B9
:10A7D000263091F826306FF3820381F8263010BDC1
:10A7E000064B1B68DB0701D500BE7047704700BFF2
:10A7F00075AE02001461002038700020F0ED00E01A
:10A80000704700BF0A4630B4094C496805461068D5
:10A81000234603C30023C4E9023392F900209A427D
:10A820002846ACBF802119461A4630BCFFF7A6BAAD
:10A8300038710020F0B50E462B4C49680746306849
:10A84000A260254603C50021E181F588AB4228BFFF
:10A850002B4683B0A381ADB13BB3002A3DD094F920
:10A860000000402B28BF402300282CDB1F4A38461D
:10A87000FFF784FA98B91E4B1B68DB0712D500BEA0
:10A8800003B0F0BD96F90030002BACBF8021002151
:10A8900038462B462A46FFF771FA0028EBD00120F4
:10A8A00003B0F0BD002003B0F0BD94F90020002AF1
:10A8B000ACBF194680211A463846FFF75FFA0028D8
:10A8C000D9D00120ECE71146084801931A4627F039
:10A8D0000EFA064A019B8021EEE7054B1B68D9075B
:10A8E000E0D500BE1046CBE7387100204C71002047
:10A8F000F0ED00E0034B0022C3E90022C3E902228D
:10A900001A61704738710020014B1861704700BF11
:10A91000387100200346064A5968006810B413468F
:10A92000002403C3C2E902445DF8044B704700BF32
:10A930003871002070B5404C2278C909B1EBD21FA4
:10A9400082B0064615D03BB13C4B1B68DA0700D5F8
:10A9500000BE002002B070BD2146FFF751FF236901
:10A96000002B40D02246304603219847012002B0F8
:10A9700070BD94F90020A068002A08DB0028E8D008
:10A980001A462F49019327F0B2F9A068019BE58987
:10A99000E2881D44ADB21844AA42A060E58101D00E
:10A9A0003F2B23D8236923B1234A022130469847FD
:10A9B00088B194F9002000239A42ACBF8021194647
:10A9C00030461A46FFF7DAF968B91C4B1B68DB07FB
:10A9D000BFD500BEBEE70146304600F0A9FB3046B9
:10A9E000802100F0A5FB012002B070BDA28994F97E
:10A9F0000010531B9BB2402B28BF402300290ADBC9
:10AA000095424FF0000112D00D4A3046FFF7B6F9DB
:10AA10000028DAD0E7E795420BD001461A460848ED
:10AA2000019327F064F98021054A019BEDE70A466E
:10AA3000EBE780210022E8E738710020F0ED00E02C
:10AA40004C71002042DF704743DF704744DF70479E
:10AA500012DF7047F0B5334CBFF35B8F014604F54E
:10AA600090730125D3E84F2FC3E8405F0028F9D148
:10AA7000BFF35B8F12F0FF0F48D1082929D04E0198
:10AA8000A21954F806C028489388284F01F59476F7
:10AA900001EB810E50F82660D2889A1A93B2B6B2B2
:10AAA00000EB8E0209B2B34228BF3346C2F800C79A
:10AAB00007EB8100C2F8043747F82150BFF36F8FCE
:10AAC000BFF34F8F1A4B984218D0043B984215D0D1
:10AAD000F0BD154BD3F8C024D1030FD494F80B115B
:10AAE00061B11449D4F80001C3F8A007C3F8A42742
:10AAF0000D60BFF36F8FBFF34F8FF0BD0023BFF327
:10AB00005B8F84F82031BFF35B8FF0BD0A4B0B489D
:10AB10005A68C2F30802003218BF0122BDE8F040B3
:10AB2000FFF7B6B88C710020007002402870024018
:10AB3000507002404870024000ED00E0A5AB0200FA
:10AB4000144BBFF35B8F0122D3E84F1FC3E84C2F98
:10AB5000BCF1000FF8D1BFF35B8F11F0FF0F14D1E0
:10AB60000260BFF36F8FBFF34F8F0B4B984203D040
:10AB7000043B984200D07047084BBFF35B8F002224
:10AB800083F82021BFF35B8F704701460448FFF72D
:10AB90007FB800BFAC720020507002408C71002062
:10ABA00041AB0200F0B5334CBFF35B8FC1B204F58B
:10ABB00090730126D3E84F2FC3E8406F0028F9D1E6
:10ABC000BFF35B8F12F0FF0F47D1082928D04D014A
:10ABD000621954F805E028489388DFF8B0C001F501
:10ABE000947550F82570D2888D009A1A93B2BFB22E
:10ABF0006A1800EB8202BB4228BF3B46C2F800E75E
:10AC00006544C2F804374CF82160BFF36F8FBFF37F
:10AC10004F8F1A4B9D4218D0043B9D4215D0F0BD7A
:10AC2000154BD3F8C024D1030FD494F80B1161B1A4
:10AC30001349D4F80001C3F8A007C3F8A4270E6095
:10AC4000BFF36F8FBFF34F8FF0BD0023BFF35B8F58
:10AC500084F82031BFF35B8FF0BD0A4B0A485A6875
:10AC6000C2F30802003218BF0122BDE8F040FFF72E
:10AC70000FB800BF8C71002000700240507002407D
:10AC80004870024000ED00E0A5AB020028700240D1
:10AC9000704700BF014B80225A60704700E100E01E
:10ACA000074BD3F80014D3F8002400200A434FF4D4
:10ACB0008001C3F80024C3F85801C3F80413704797
:10ACC0000070024070B48A788C88414EC97802F0D6
:10ACD0007F03D50905EB430006EB001001F00301EB
:10ACE000C4F30A04012904812BD0012101FA03F4E1
:10ACF000BDB1384802339940C0F80413D0F810357C
:10AD00002343C0F81035334B42F48071C3F8182543
:10AD1000C3F80C15BFF36F8FBFF34F8F012070BCCA
:10AD200070472C4803F10C06B140C0F80413D0F86A
:10AD3000141503F594730C43C0F8144540F82350E0
:10AD4000E1E7082B08D0244B186810F00100E6D08A
:10AD500000BE002070BC7047EDB9B6F818311BB1C9
:10AD60001C4B8022C3F81C251A4A0023C2F850311C
:10AD7000D2F8003313F4001308BFC2F85431154B56
:10AD80004FF44012C3F80423D3F8142542F4807220
:10AD9000C3F81425BEE7B6F808210E4B0021C3F80E
:10ADA0002C1112B18022C3F81C250A4AD2F80033B4
:10ADB00013F4001308BFC2F85431064B074AC3F816
:10ADC0000423D3F8102542F48072C3F81025A1E7BC
:10ADD0008C71002000700240F0ED00E000082000BF
:10ADE0001F4B80222DE9F041C3F88420BFF34F8F21
:10ADF000BFF36F8F01241B4D1B4FA0460026A300FD
:10AE000004F10C02A11C03F1804303F51C3308FA82
:10AE100001F108FA02F20A43C7F8082328465E60E7
:10AE2000013420229E62002126F085FF082C05F1C6
:10AE30002005E4D10D4BC7F808332022C7F81C6564
:10AE400000217E620A48BE6426F075FFC7F81485AB
:10AE5000C7F81085024B80225A60BDE8F08100BF20
:10AE600000E100E0AC7100200070024000083000FA
:10AE70008C72002001F07F02082A70B44FEAD111D1
:10AE800028D0012303FA02F0C043B1B1294C951C2C
:10AE9000AB40C4F80833D4F81055274B2840C4F809
:10AEA000100501EB420103EB01110023CB72BFF34C
:10AEB0006F8FBFF34F8F70BC70471E4C02F10C05B3
:10AEC000AB40C4F80833D4F814551B4B2840C4F8E1
:10AED0001405E6E7184B03EB01100024A0F8084125
:10AEE0001448D1B14FF40064C0F80843D0F81045BD
:10AEF00024F48074C0F81045B3F81841B3F8085131
:10AF00000C48EC424FF0000608BF4FF40014C0F8A4
:10AF10001C6508BFC0F80843C3E74FF48014C0F8AD
:10AF20000843D0F8144524F48074C0F81445C0F8E0
:10AF30005011E1E7007002408C71002001F07F00A9
:10AF40004FEAD11CF0B50CEB4005704F2D017E1976
:10AF500085B0F47A4CB16E4B1C6814F0010401D03A
:10AF600000BE0024204605B0F0BD04F0FF0E7A516B
:10AF70000C46B380A6F806E0002840D1002B54D13F
:10AF8000644BD3F88034C3F3C01363454DD0BFF393
:10AF90005B8F07F590710122D1E84F3FC1E8402F48
:10AFA0000028F9D1BFF35B8FDBB2002B40F09F800C
:10AFB00059490A60BFF36F8FBFF34F8FBFF35B8FA9
:10AFC00087F82031BFF35B8F544B5968C1F30801F8
:10AFD00000314FF000034FF4E06201A818BF0121D7
:10AFE000CDF8063003938DF80840ADF80A30ADF87F
:10AFF0000420FEF729FD0124204605B0F0BDBCF178
:10B00000000F15D107EB40170123FB72BFF36F8FC1
:10B01000BFF34F8FBB7A23B1FB7A03F0FF04002B01
:10B020006ED10124204605B0F0BDBCF1000F3CD02C
:10B0300007EB401100EB8003CD8A8A8A0C8B0969EB
:10B04000521B9B0092B203F1804303F51C33A242D2
:10B0500028BF2246324DC3F8001600B2C3F80426BA
:10B06000304BBFF35B8F05EB80010122D3E84F4FDC
:10B07000C3E8462F002EF9D1BFF35B8FE4B2002C5A
:10B080003AD145F82020BFF36F8FBFF34F8F224B8B
:10B09000994202D0043B9942C3D1BFF35B8F002396
:10B0A00087F82031BFF35B8FBBE701221D4BFA729B
:10B0B000BFF35B8FD3E84F4FC3E8412F0029F9D18D
:10B0C000BFF35B8FE4B26CB9174B1A60BFF36F8F9D
:10B0D000BFF34F8FBFF35B8F87F820C11446BFF3D8
:10B0E0005B8F3FE710491148FEF7D2FD3AE70A4966
:10B0F0000E48FEF7CDFD67E70C48FEF7C9FD31E7C6
:10B1000087F80AC0FFF7A6FC2CE700BF8C7100206F
:10B11000F0ED00E0007002405070024000ED00E0F1
:10B1200004700240AC7200204C70024041AB02003F
:10B1300011F07F0008B512D008280BD00E4B41F457
:10B140008072C909C3F8182504D10C4B03EB4013D6
:10B150009A7A62B9BFF36F8FBFF34F8F08BD064B6A
:10B1600001225A65BFF36F8FBFF34F8F08BD9972ED
:10B17000FFF770FCEEE700BF007002408C7100200A
:10B1800011F0770F12D00A4B41F48072C3F80C15FE
:10B19000C3F80C25CA09C3F8181504BF01F594714A
:10B1A00043F82120BFF36F8FBFF34F8F704700BF6D
:10B1B000007002402DE9F04FAA4BAB4CD3F80003CE
:10B1C000002389B01E461F46012520FA03F11A19F3
:10B1D000C9074FEA820209D5116839B105FA03F1AE
:10B1E00017600E43BFF36F8FBFF34F8F0133192BDF
:10B1F000EBD1F20700F14A829C4D330508D5994BFB
:10B20000D3F8A83601229BB2A5F8163185F81C2187
:10B21000B70206F4800429D5924BD3F81425D00543
:10B2200040F10582002C00F0C182D3F80024D2073F
:10B2300040F1BC82D3F81035DB0540F1018295F86E
:10B240001C310DF116070DF11408002B40F0DA82C5
:10B250000023CDF8163003227B603B81404601215C
:10B260008DF814308DF81520FEF7EEFB04B37D4AFF
:10B27000D2F8004440F201732340E705C2F80034DD
:10B2800000F16D82600510D5764B0122C3F80825C8
:10B290009A65D3F8002312F4001208BFC3F85421B2
:10B2A000704B4FF40012C3F80423A10500F146824D
:10B2B000320240D56B4BD3F88024D3F88414D3F8F2
:10B2C00088C4D3F88C74D3F89084D3F89444D3F81A
:10B2D0009804D3F89C34D2B25FFA80FAD8B25306FD
:10B2E000C9B25FFA8CFCFFB25FFA88F85FFA84FE9D
:10B2F00001D105291FD04FF000094B464C4662F39F
:10B30000070368F3070461F30F236EF30F246CF354
:10B3100017436AF3174460F31F6467F31F634FF426
:10B32000C062012105A8ADF81690CDE90634ADF84C
:10B330001420FEF789FB4E4B3340002B40F09681E2
:10B34000DFF82891474F4D46CA4609F5907800240A
:10B350001FE02B44DA7A002A00F0E481DA88AAF8A8
:10B3600004200022DA72DB88079301214FF4E063A6
:10B3700005A8CDF81620ADF81A208DF818B0ADF854
:10B380001430FEF761FBBBF1080F47D001340AF11E
:10B39000200A04F10C0326FA03F3D8075FFA84FBB2
:10B3A000F1D504EB840307EB8303DAF80020D3F82C
:10B3B0000807630112FA80F2E918CAF80020CA8867
:10B3C00080B2024492B2082CCA80C2D0BAF80820D7
:10B3D0008242BED1CA88BAF804109142B9D9BBF1F1
:10B3E000000FD0D10122BFF35B8FD8E84F3FC8E8F0
:10B3F000412F0029F9D1BFF35B8F13F0FF0F1D49D7
:10B4000040F06C820A60BFF36F8FBFF34F8FBFF3C2
:10B410005B8F85F82031BFF35B8FB7E7164B334066
:10B42000002B00F001810F4BD3F86CA4C3F86CA47F
:10B43000BFF36F8FBFF34F8F16F4806600F07B81F0
:10B44000D3F88024D3F8803483F08003C3F3C0138F
:10B450000393C2F3C0130293D046DFF808B0002470
:10B46000AA4613E000700240409C00108C7100203E
:10B47000FCFB1F004C70024000040001002C00F097
:10B480001082072F50D0013409F1200928FA04F264
:10B4900004EB8403D2070BEB83030AEB4415E7B2FA
:10B4A000ECD5D3F80816D9F81020C9B20A44C9F867
:10B4B0001020E88A014489B2E982B449E88AB9F8DF
:10B4C000146061188900864200914FF0010E67F008
:10B4D0007F0101914FF0000C714605A840F2B58044
:10B4E000E88AB9F81810C3F80026361AB6B28E42A8
:10B4F00028BF0E46A64AC3F80466BFF35B8FD2E8A6
:10B500004F3FC2E841EF0029F9D1BFF35B8F13F041
:10B51000FF0F40F00181009BC3F800E0BFF36F8F85
:10B52000BFF34F8F072FAED118F4803F5546C24668
:10B5300001D1039B43B1EB7A23B1EB88AA889A42ED
:10B5400000F293810123AB721AF4003F0AD095F800
:10B550002B3023B1EB8CAA8C9A4200F2A7810123F5
:10B5600085F82A301AF4802F0CD095F84B3033B17F
:10B57000B5F84630B5F844209A4200F29B81012389
:10B5800085F84A301AF4002F0CD095F86B3033B19F
:10B59000B5F86630B5F864209A4200F29B81012329
:10B5A00085F86A301AF4801F0CD095F88B3033B1CF
:10B5B000B5F88630B5F884209A4200F25A8101230A
:10B5C00085F88A301AF4001F0CD095F8AB3033B1EF
:10B5D000B5F8A630B5F8A4209A4200F24E810123B6
:10B5E00085F8AA301AF4800F0CD095F8CB3033B11F
:10B5F000B5F8C630B5F8C4209A4200F24281012362
:10B6000085F8CA301AF4000F0ED095F8EB30002BF5
:10B6100000F00D81B5F8E630B5F8E4209A4240F22A
:10B6200006810720FFF716FA09B0BDE8F08FD3F8BE
:10B630001025D1053FF503AE4FF40012C3F80823DF
:10B640000DF116070DF1140802E6EB8A07934FF48B
:10B65000E063ADF814309DF80430CDF816C0ADF8B5
:10B660001AC08DF81830FEF7EFF90AE7BFF35B8FC9
:10B6700095F82031BFF35B8F002B40F0DC80454B09
:10B680001B68DC077FF55CAE00BE59E6424B434ABF
:10B69000434D444800244FF00109C2F81495C2F804
:10B6A0001095546094625C609C629C60DC62DC601B
:10B6B0001C631C615C635C619C639C61DC63DC619A
:10B6C0001C6454629464C2F85841D2F80034D2F831
:10B6D00000140B43C2F80034D2F80033C2F8083328
:10B6E0002146C2F804030DF116070DF12008284683
:10B6F0004FF4927226F01FFB4FF48073CDF8164082
:10B700007C603C8128F80C3D4023494640462B8311
:10B710002B81FEF799F970E5724600992248FEF7F1
:10B72000B7FAAEE61B4B1B68D9077FF57DAF00BEAD
:10B7300009B0BDE8F08FCDE902668DE60023052251
:10B74000012105A8CDF81A30CDF81630ADF81E301D
:10B750008DF814308DF81520FEF776F9A8E5012153
:10B76000C2F82C150023042205A8CDF81A30CDF814
:10B770001630ADF81E308DF814308DF81520FEF718
:10B7800063F960057FF591AD7EE500BF019C001077
:10B79000AC720020F0ED00E0047002400070024046
:10B7A0008C7100200514C00141AB02004D4BBFF36A
:10B7B0005B8F0122D3E84F1FC3E8402F0028F9D147
:10B7C000BFF35B8F11F0FF0F3DD1474BD3F8C0049F
:10B7D000C7035AD495F80B1101F0FF0700296DD06B
:10B7E0004249D5F80071C3F8A077C3F8A4070A60EE
:10B7F000BFF36F8FBFF34F8FD3F81035D9053FF5E7
:10B800001EAD1DE70023B5F81611CDF8163085F8EA
:10B810001C31BB804FF4E062079188234046012130
:10B82000ADF814208DF81830FEF70EF910E501235D
:10B8300085F8EA30F8E60023BFF35B8F85F8203106
:10B84000BFF35B8F7CE52A4B2A485A68C2F3080293
:10B85000003218BF01220821FEF71AFA224BD3F852
:10B860001035DB053FF5EBACEAE60020FFF7F2F818
:10B870006AE60420FFF7EEF8A4E60520FFF7EAF8F1
:10B88000B0E60620FFF7E6F8BCE6BFF35B8F85F86D
:10B890002011BFF35B8FD3F81035D8053FF5CFAC3F
:10B8A000CEE6029A002A3FF4EEADFAE50120FFF75A
:10B8B000D1F857E60220FFF7CDF863E6BFF35B8FC0
:10B8C00085F82071BFF35B8FD3F81035DA053FF5AB
:10B8D000B6ACB5E60320FFF7BDF863E60648FEF711
:10B8E000D7F953E5AC720020007002404870024066
:10B8F00000ED00E0A5AB020041AB020030B501282D
:10B9000085B000F09F8057D3022840D1B94BD3F8BF
:10B910000435002B40F0DD80B64AD2F800341C0517
:10B92000FBD54FF40063C2F80034BFF36F8FBFF351
:10B930004F8FB14AB14B12681B68082A00F0DD80B6
:10B94000AC4BAF4D80240122C3F81C45C3F804233F
:10B95000C5F88441FDF7E6FF002840F0FF80A94DBF
:10B9600043F204044FF080432268AA4211D0D3F876
:10B970000C14D3F80C24D003F6D5CA07F4D59D4B8C
:10B980000122C3F80425BFF36F8FBFF34F8F05B0BB
:10B9900030BD04AA002102F80C1D1046FFF758F82C
:10B9A0009DF804000028E2D010460191FFF74EF800
:10B9B000019A002AD8D0E2E78E4BD3F80025002A5E
:10B9C000E5D14FF480014FF40062C3F80813C3F8C7
:10B9D0000024BFF36F8FBFF34F8F874B1B68082B7B
:10B9E00000F0BE80834B0122C3F80025BFF36F8FA8
:10B9F000BFF34F8F43F2040203F18D5303F5772316
:10BA0000126803F2DB539A4200F0D1804FF080437A
:10BA1000D3F80C24D3F80C34D90301D5D207B6D40B
:10BA200043F20402774B12689A4200F01E81764B73
:10BA300000221A601B6801934FF080430122019994
:10BA40001A60A4E76B4BD3F80025002A9FD0002290
:10BA5000C3F80425BFF36F8FBFF34F8F6849802071
:10BA6000C1F88400BFF34F8FBFF36F8FD3F800137B
:10BA7000C3F80813C3F80025BFF36F8FBFF34F8FD0
:10BA800043F2040103F18D5303F57723096803F2B0
:10BA9000DB53994200F0A08001AB5C4A01211160A8
:10BAA0005B4A5168C1F30801003118464FF00202A9
:10BAB0004FF0000318BF0121CDF80A30CDF8063051
:10BAC000ADF80E308DF804308DF80520FDF7BCFF81
:10BAD0005DE743F204024B4B12689A4200F0B080DB
